:020000040800F2
:10000000C00A002091010008CB1E0008DF1A00087A
:10001000C91E0008D1070008712600080000000072
:10002000000000000000000000000000D5200008D3
:10003000D3070008000000009720000845210008B1
:10004000AB010008AB010008AB010008AB010008E0
:10005000AB010008AB010008AB010008AB010008D0
:10006000AB010008AB010008AB010008AB010008C0
:10007000AB010008AB010008AB010008AB010008B0
:10008000AB010008AB010008AB010008AB010008A0
:10009000AB010008AB010008AB010008AB01000890
:1000A000AB010008AB010008AB010008AB01000880
:1000B000AB010008AB010008AB010008AB01000870
:1000C000AB010008AB010008AB010008AB01000860
:1000D000AB0100085926000865260008AB0100089E
:1000E000AB010008AB010008AB01000800F002F80A
:1000F00000F03FF80AA090E8000C82448344AAF183
:100100000107DA4501D100F034F8AFF2090EBAE880
:100110000F0013F0010F18BFFB1A43F0010318473B
:10012000F026000010270000103A24BF78C878C1DC
:10013000FAD8520724BF30C830C144BF04680C60ED
:10014000704700000023002400250026103A28BF35
:1001500078C1FBD8520728BF30C148BF0B60704739
:10016000642900F07D80002070471FB51FBD10B5C9
:1001700010BD00F0D4F91146FFF7F7FF02F08AFA3C
:1001800000F0F2F903B4FFF7F2FF03BC00F0FCF952
:100190000948804709480047FEE7FEE7FEE7FEE71B
:1001A000FEE7FEE7FEE7FEE7FEE7FEE70448054957
:1001B000054A064B70470000AF210008ED0000081B
:1001C000C0040020C00A0020C0060020C006002095
:1001D0000FB41CB5074B06AA7B44694600900598EE
:1001E00000F085F90020694600F094F91CBC5DF828
:1001F00014FB0000390300002DE9F0410E460446CF
:10020000002020622046E168884730B3252805D0C9
:10021000D4E901219047206A401CF2E7E1682046BA
:1002200000278847050018D0A5F14100192802D8F9
:1002300020354FF400673246294620462760FFF7F5
:100240008FFF40B1012804D0F61D26F007060836BE
:10025000D8E7361DD6E72846DAE7206ABDE8F08100
:100260002DE9F0410646002410687529314616A58F
:1002700010D0AFF30080002802DA404213A507E057
:1002800031688A0701D512A502E0490704D511A5F6
:10029000012401E0AFF3008000210A2206F12407C7
:1002A00009E0B0FBF2FCB0FBF2F302FB1C003030C3
:1002B00078541846491C0028F3D123462A46304674
:1002C000BDE8F04100F0B5B8000000002D000000CE
:1002D0002B0000002000000040EA0103024630B578
:1002E0009B0710D14FF0013400E008C208C91D1B64
:1002F0009D4315EAC41FF8D013F0FF0102F8011B5B
:100300000DD01B0AF8E711F8013B002B02F8013B66
:1003100005D011F8013B002B02F8013BF3D130BDB1
:1003200010B5431C02E010F8011B71B18107FAD12E
:100330004FF0013202C88C1A8C4314EAC211F9D072
:10034000C01A0A0603D0C01E10BDC01A10BD0A0490
:1003500001D0801E10BD0902FCD0401E10BD4FF020
:10036000000200B5134694469646203922BFA0E805
:100370000C50A0E80C50B1F12001BFF4F7AF090711
:1003800028BFA0E80C5048BF0CC05DF804EB890002
:1003900028BF40F8042B08BF704748BF20F8022B45
:1003A00011F0804F18BF00F8012B70474FF0013C4F
:1003B00050F8042B51F8043B9A4221D1A2EB0C03D4
:1003C000934313EACC1317D150F8042B51F8043B94
:1003D0009A4215D1A2EB0C03934313EACC130BD131
:1003E00050F8042B51F8043B9A4209D1A2EB0C03BC
:1003F000934313EACC13DBD04FF00000704700BFEB
:10040000D01A01BAB1FA81F101F0180122FA01F013
:10041000CB40C1F12001DBB2C0B2C01A2CFA01F30B
:10042000D11A914311EAC311E6D170477047704762
:1004300070472DE9F0470D4699469246044600F173
:1004400024080168880604D5E06921F010012160C4
:1004500000E00120A84201DD471B00E00027A16960
:100460007A1902EB0900081AA0612078C00602D4AC
:100470002046AFF30080002608E0D4E901211AF8F5
:1004800006009047206A401C761C20624E45F4DB33
:100490002078C0060AD52046AFF3008006E0D4E9F4
:1004A000012130209047206A401C2062381EA7F1AD
:1004B0000107F4DC07E0D4E9012118F805009047B2
:1004C000206A401C2062281EA5F10105F3DC2046AD
:1004D000AFF300802078000602D50220BDE8F08747
:1004E0000120FBE701694A1C02610878704700B5EA
:1004F0008FB0CDE901310021059105497944CDE95D
:10050000031011466846FFF777FE0FB000BD0000EC
:10051000E5FFFFFF0A6802F8010B0A6070477546A5
:1005200000F02CF8AE4605006946534620F007005F
:10053000854618B020B5FFF739FEBDE820404FF0E2
:1005400000064FF000074FF000084FF0000B21F0BD
:100550000701AC46ACE8C009ACE8C009ACE8C0098A
:10056000ACE8C0098D46704710B50446AFF3008073
:100570002046BDE81040FFF705BE00000048704768
:10058000600400207047000001491820ABBEFEE760
:10059000260002002DE9F041DFF8588100254FF4D4
:1005A000FA774FF4C876052D64D2DFE805F0031A18
:1005B00034527100641CE4B24FA20221002001F009
:1005C00085FC01F0AFFC002854D1012001F08CFC27
:1005D00000284FD14DA2022101F078FC0024012512
:1005E00015E0641CE4B24EA20221002001F06EFC72
:1005F00001F098FC00283DD1022001F075FC002894
:1006000038D142A2022101F061FC002402253046CB
:1006100000F050F9C7E747A20221002001F056FC84
:1006200001F0DCFC68B148A20221002001F04EFC80
:1006300000242546384600F03DF9304600F03AF9EE
:10064000B8E746A20221002001F040FC032538460D
:100650000EE047A20221002001F038FC384600F0ED
:1006600029F901F0D5FC60B15FF000054FF47A7014
:1006700000F020F9304600F01DF90A2C93D1BDE8B6
:10068000F08140A20221002001F020FC0425EDE7CA
:10069000B8F800104046491C89B2A8F80010642937
:1006A00001D10121018089B2022001F0CBFC30B1DF
:1006B0000025304600F0FEF80A2CE0D07AE736A29A
:1006C0000221002001F002FC40F2DC5000F0F2F8C0
:1006D000002136A2084601F0F9FB37A202211020C2
:1006E00001F0F4FBBDE8F041062136A2102001F034
:1006F000EDBB00001C00002020202020C7EBB0B480
:10070000CAD6D6B8202020200D0A000020202020A4
:10071000D6B8CEC6D5FDB3A3202020200D0A0000F8
:10072000202020C7EBD4D9B0B4D2BBB4CE20202037
:100730000D0A00002020B6D4B1C8C1BDB4CED6B8D1
:10074000CEC620200D0A000020202020B6D4B1C83B
:10075000CAA7B0DC202020200D0A00002020202085
:10076000B6D4B1C8B3C9B9A6202020200D0A000014
:100770002020C9FAB3C9D6B8CEC6C4A3B0E520209C
:100780000D0A0000C9FAB3C9D6B8CEC6C4A3B0E5F5
:10079000B3C9B9A60D0A00002020C2BCC8EBD6B868
:1007A000CEC6B3C9B9A620200D0A0000D6B8CEC661
:1007B000D1E9D6A40D0A000031CCEDBCD3D6B8CE19
:1007C000C60D0A0032D1E9D6A4D6B8CEC60D0A00AD
:1007D000FEE7704710B590F821100022022905D0DD
:1007E0000421816380F82020012010BD01680B687E
:1007F00023F00E030B6001680B6823F001030B600C
:1008000090F84030C46B012101FA03F3636080F873
:10081000211080F82020104610BD000010B590F87F
:1008200021100024022903D00421816301243DE02A
:1008300001680A6822F00E020A6001680A6822F064
:1008400001020A601A4A0168914201D1012121E0A6
:10085000174A1432914201D110211BE0144A283268
:10086000914201D1891515E0114A3C32914201D1E2
:1008700089140FE00E4A5032914202D14FF4803178
:1008800008E00B4A6432914202D14FF4801101E03A
:100890004FF08071064A083A5160012180F821101A
:1008A000002180F82010416B01B18847204610BD1F
:1008B0000800024070B5044600F0FEF80546601CD2
:1008C00002D004480078044400F0F6F8401BA0422F
:1008D000FAD370BD040000202DE9F84FDFF8B8917D
:1008E000002409F1040A0AF1040B23460F270BF137
:1008F000040EC9E00125A5402A40AA427DD1674ED9
:10090000D1F804C0ACEB0608B44532D014DCBCF11D
:10091000030F3AD009DCBCF1000F2AD0BCF1010F63
:100920001CD0BCF1020F31D11DE0BCF1110F17D06A
:10093000BCF1120F2AD119E0B8F5881F19D006DCD6
:10094000B8F5803F15D0B8F5801F1FD111E0B8F57C
:10095000001F0ED0B8F5041F18D10AE0CB6815E0CF
:10096000CB681B1D12E0CB6808330FE0CB680C335B
:100970000CE08B682BB1012B4FF0080303D04561CD
:1009800004E0042302E0056100E00023FF2A01D80F
:10099000064601E000F104064FEA840501D9A5F1FD
:1009A0002005D6F8008007FA05FC28EA0C0803FAAF
:1009B00005F548EA0508C6F800804D68ED0062D5E7
:1009C000374DAE6946F00106AE61AD6924F003060D
:1009D00005F001050095334D06EB050CDCF80850D9
:1009E000A607360F07FA06F825EA0805DFF8B880EB
:1009F000404503D14FF0000817E044E0DFF8AC8039
:100A0000404502D14FF001080FE0DFF8A4804045D7
:100A100002D14FF0020808E0DFF89880404502D18B
:100A20004FF0030801E04FF0040808FA06F848EA1E
:100A30000508CCF808804D68D9F80060ED034D46F4
:100A400001D5164300E096432E604D68DAF8006049
:100A5000AD03554601D5164300E096432E604D6820
:100A6000DBF80060ED025D4601D5164300E09643D9
:100A70002E604D68DEF80060AD02754601D5164364
:100A800000E096432E60641C0D682A46E5407FF422
:100A900031AFBDE8F88F00000004014000001110E4
:100AA000001002400000014000080140000C01401D
:100AB00000100140001401400148806870470000A8
:100AC0000400002002488168027811448160704768
:100AD00004000020074810B5016841F010010160D2
:100AE000032000F075F80F2000F006F800F024F85D
:100AF000002010BD0020024070B50D4D04464FF49B
:100B00007A712878B1FBF0F00A490968B1FBF0F07E
:100B100000F0ECFA48B9102C07D200222146501EF2
:100B200000F036F800206C6070BD012070BD000040
:100B300004000020100000200C4808B5816941F035
:100B400001018161816901F001010091C16941F0F8
:100B50008051C161C06900F0805000900448416834
:100B600021F0E06141F00071416008BD00100240D9
:100B700000000140002809DB00F01F020121914024
:100B80004009800000F1E020C0F80011704700002B
:100B9000F0B40E4B1B680C46C3F30223C3F10705E8
:100BA000042D00D90425191D072901D2002300E0D6
:100BB000DB1E012606FA05F1491E214099409E40A0
:100BC000761E16403143F0BC01F053BD0CED00E041
:100BD000064900F0070208684FF6FF03184040EA94
:100BE0000220034A10430860704700000CED00E04B
:100BF0000000FA052DE9F0470F46050061D0434E8D
:100C0000306800F00700B84209D2306820F00700D1
:100C100038433060306800F00700B84251D128688E
:100C20003B4C810712D5400703D5606840F4E06073
:100C300060602878000703D5606840F46050606009
:100C40006068A96820F0F000084360602878C00759
:100C500028D06868012810D02168022810D08907A0
:100C600000292EDA616821F0030101436160FFF77A
:100C700023FF804641F288390DE021688903EFE7C0
:100C80008901EDE7FFF718FFA0EB0801494502D9FC
:100C90000320BDE8F0876068696800F00C00B0EBE5
:100CA000810FEFD1306800F00700B8420BD93068EF
:100CB00020F0070038433060306800F00700B84289
:100CC00001D00120E5E72878400705D56068E9688C
:100CD00020F4E060084360602878000706D560686B
:100CE000296920F4605040EAC100606000F038F8E3
:100CF0006168084AC1F30311515CC84006490860A5
:100D000006480068FFF7F8FE0020C2E70020024016
:100D100000100240F8270008100000200800002002
:100D20000448054900684968044AC1F30221515C3E
:100D3000C84070471000002000100240082800083A
:100D40000448054900684968044AC1F3C221515C5E
:100D5000C84070471000002000100240082800081A
:100D600012A185B00FC98DE80F0014A0144A0068C5
:100D700004905168134801F00C03042B10D0082B89
:100D80000ED1C1F38343C9031DF803000AD551688E
:100D900004AAC1F34041515C0A4A5043B0FBF1F050
:100DA00005B0704708494843FAE70000020304050C
:100DB000060708090A0B0C0D0E0F101001020000A7
:100DC0000010024000127A0000093D002DE9F84FA2
:100DD000040070D02078C04DC00749D06868C0F3C7
:100DE0008100012807D06868C0F38100022809D17A
:100DF0006868C00306D52868800339D56068002874
:100E0000E7D035E06068B0F5803F0BD010B1B0F5A9
:100E1000A02F11D0286820F480302860286820F4A2
:100E2000802002E0286840F480302860606890B13B
:100E3000FFF742FE06460AE0286840F4802028605A
:100E4000F0E700BFFFF738FE801B642873D82868DE
:100E50008003F7D50CE0FFF72FFE064605E000BF44
:100E6000FFF72AFE801B6428F0D828688003F7D497
:100E700020789A4E80074FF001094FF0000839D5CD
:100E8000686810F00C0F07D06868C0F38100022872
:100E900009D16868C00306D42868800714D5206982
:100EA000012808D110E02069B0B1C6F80090FFF722
:100EB00003FE074605E00AE1FFF7FEFDC01B02281E
:100EC000C4D828688007F7D52868616920F0F80041
:100ED00040EAC10028600DE0C6F80080FFF7ECFD95
:100EE000074604E0FFF7E8FDC01B022823D8286866
:100EF0008007F7D4207800072CD57948A169D9B1AB
:100F0000C0F80090FFF7D8FD074604E0FFF7D4FDD6
:100F1000C01B02280FD8686A8007F7D571484FF4C4
:100F2000FA510068B0FBF1F0009000BF0098411E3C
:100F30000091FAD20EE080E0C0F80080FFF7BCFD1F
:100F4000074604E0FFF7B8FDC01B022875D8686AA1
:100F50008007F7D42078400760D5E8690027C000F3
:100F600008D4E86940F08050E861E869012700F0A2
:100F7000805000905C480168C90513D4016883461D
:100F800041F480710160FFF797FD824606E000BFE3
:100F9000FFF792FDA0EB0A0064284ED8DBF80000B2
:100FA000C005F5D5E06801280AD008B1052813D09E
:100FB000286A20F001002862286A20F0040002E07C
:100FC000286A40F001002862E06841F2883B98B14D
:100FD000FFF772FD82460BE0286A40F004002862A9
:100FE000EEE700BFFFF768FDA0EB0A0159455AD8AC
:100FF000286A8007F6D50CE0FFF75EFD824605E023
:10100000FFF75AFDA0EB0A0159454CD8286A800722
:10101000F6D41FB1E86920F08050E861E06988B338
:101020006968C1F38101022944D00228C6F86080B2
:1010300004D0FFF741FD044638E034E0FFF73CFD03
:10104000074604E0FFF738FDC01B02282BD82868AC
:101050008001F7D4206AB0F5803F05D16868A168A7
:1010600020F4003008436860D4E908010843696847
:1010700021F4741108436860C6F86090FFF71CFD06
:10108000044606E025E000BFFFF716FD001B02281E
:1010900009D828688001F7D51BE000BFFFF70CFDD9
:1010A000001B022802D90320BDE8F88F28688001C0
:1010B000F4D40EE00128F7D06868226A00F4803189
:1010C000914204D1616A00F47010884201D001207D
:1010D000EAE70020E8E7000000100240000042427A
:1010E00080044242100000200070004010B5401EF5
:1010F000B0F1807F01D3012010BD4FF0E02460618A
:101100000F21601701F0B5FA0020A06107202061CF
:10111000002010BD70B590F83C20012A26D0012493
:1011200080F83C40022280F83D2003685A689D68A0
:1011300022F070060A6832435A600D4B02689A42E8
:1011400008D0B2F1804F05D00A4B9A4202D00A4B28
:101150009A4204D1496825F080031943916080F8D0
:101160003D40002180F83C10084670BD022070BD53
:10117000002C0140000400400008004010B50400AD
:1011800003D094F83D0010B107E0012010BD00200D
:1011900084F83C00204600F01FF8022084F83D004F
:1011A000211D206801F004F8012084F8460084F82D
:1011B0003E0084F83F0084F8400084F8410084F841
:1011C000420084F8430084F8440084F8450084F821
:1011D0003D00002010BD000008B50068B0F1804F50
:1011E00008D10548C16941F00101C161C06900F041
:1011F0000100009008BD00000010024070B50446D8
:1012000090F83C00012817D0012584F83C500220BA
:1012100084F83D002068826822F0770222F47F4241
:1012200082600868502830D00DDC20284DD005DCC5
:1012300098B310283BD148E0022070BD302844D03C
:10124000402834D139E0602828D0702806D0B0F585
:10125000805F2CD0B0F5005F29D10AE0CB68D1E9DE
:101260000121206800F0E7FF2068816841F07701E4
:1012700009E0CB68D1E90121206800F0DCFF20689B
:10128000816841F48041816011E0CA684968206842
:1012900001F086F85021206807E016E0CA68496826
:1012A000206801F08EF86021206800F0CEFF84F8FD
:1012B0003D50002084F83C0070BDCA684968206831
:1012C00001F06EF840212068EFE7226801461046E1
:1012D000EBE7000000B585B000210091019102917B
:1012E00003910068B0F1804F11D10A48816941F043
:1012F000040181618069694600F0040004900120C6
:1013000000900220019003900348FFF7E5FA05B032
:1013100000BD0000001002400008014070B5044606
:1013200090F83C000D4601280AD0012084F83C00CA
:1013300042B1042A18D0082A2AD00C2A4DD139E00B
:10134000022070BD206800F089FF2068816941F0AB
:10135000080181612068816921F0040181612068B0
:1013600081692A69114311E0206800F09FFF20681D
:10137000816941F4006181612068816921F48061A3
:101380008161206881692A6941EA0221816124E042
:10139000206800F0B7FF2068C16941F00801C16111
:1013A0002068C16921F00401C1612068C1692A690E
:1013B000114311E0206800F0D1FF2068C16941F4B9
:1013C0000061C1612068C16921F48061C161206848
:1013D000C1692A6941EA0221C161002084F83C0008
:1013E00070BD10B5040003D094F83D0010B107E0C3
:1013F000012010BD002084F83C00204600F01EF8BB
:10140000022084F83D00211D206800F0D1FE01205B
:1014100084F8460084F83E0084F83F0084F84000D9
:1014200084F8410084F8420084F8430084F84400C2
:1014300084F8450084F83D00002010BD704700008E
:1014400010B50446022249B104290ED0082913D050
:1014500094F84100012816D0012010BD94F83E00F8
:101460000128F9D184F83E200FE094F83F000128CC
:10147000F2D184F83F2008E094F840000128EBD135
:1014800084F8402001E084F841200122206800F027
:10149000C5FE0F492068884203D1426C42F40042E5
:1014A00042642068884208D0B0F1804F05D00949D5
:1014B000884202D00849884204D1816801F00701BE
:1014C000062903D0016841F001010160002010BD30
:1014D000002C0140000400400008004030B50446E4
:1014E0000D460068002200F099FE174B41F21111E1
:1014F00020688A10984209D1036A0B4206D1036A18
:10150000134203D1436C23F4004343642068036A0D
:101510000B4206D1016A114203D1016821F0010199
:10152000016001203DB1042D08D0082D09D084F8B8
:101530004100002030BD84F83E00FAE784F83F0007
:10154000F7E784F84000F4E7002C0140704770474B
:10155000F8B5026804461068D168536910F00F0F9F
:101560004FF0000553D003F0010601F490773743A4
:101570005FD0C20705D0CA0503D5226C42F0010234
:101580002264420705D5DA0703D0226C42F002023A
:101590002264820705D5DA0703D0226C42F00402E8
:1015A0002264020707D501F02002324303D0226CE7
:1015B00042F008022264226C002A34D0800604D54E
:1015C000880602D5204600F041FF20684069216C62
:1015D000C0F38010090700D430B3204600F01EFF8E
:1015E0002068416949061BD5416921F040014161EC
:1015F000A06BA8B158494163A06BFFF70FF9002811
:1016000011D0A06B416B01B0BDE8F04008478306E4
:101610000FD58B060DD52046BDE8F84000F016BF6B
:101620002046FFF794FFF8BD2046FFF790FF2564A2
:10163000F8BD266B2023012E52D1C60650D5CE060A
:101640004ED5106850680090506940062AD5A16BAD
:10165000086840680004000CEAD0A68D8642E7D9ED
:10166000E0858869202818D0D06820F48070D06088
:101670002068416921F0010141612068416921F040
:101680004001416184F83E3025632068C16821F043
:101690001001C160A06BFFF79DF8A08DE18D401A8D
:1016A00081B219E0A08DE18D401A81B2E08D002851
:1016B000BED00029BCD0D06820F49070D0602068E3
:1016C000426922F00102426184F83E3025632068BD
:1016D000C26822F01002C2602046FFF737FFF8BD53
:1016E00005062BD50D0629D594F83D002128F6D105
:1016F000A068B0F5805F01D12069B0B1206A411CBB
:101700002162216800784860E08C401E0004000CD3
:10171000E084E4D12068C16821F08001C1602068C4
:10172000C16841F04001C160F8BD206A0088C0F383
:1017300008005060206A801C2062E5E74006F3D56F
:101740004806F1D5D168204621F04001D16084F8E7
:101750003D3000F0C3F9F8BD0D24000870B5040059
:1017600004D094F83D00002510B106E0012070BDC2
:1017700084F83C50204600F023F8242084F83D00F3
:101780002068C16821F40051C160204600F0BAFE13
:101790002068016921F4904101612068416921F0CC
:1017A0002A0141612068C16841F40051C16025648B
:1017B000202084F83D0084F83E00002070BD000029
:1017C00070B586B0002400940194029403942E4EC8
:1017D00003682E49022003222D4DB34226D18B6986
:1017E00043F480438B618B6903F4804304938B69DA
:1017F00043F004038B618969039201F004010491B1
:101800000102CDE9001069462846FFF765F8281562
:10181000CDE90004694628460294FFF75DF80022EE
:1018200011462520FFF7B4F9252028E0194EB342D0
:1018300027D1CB6943F40033CB61CB6903F4003388
:1018400004938B6943F004038B618969039201F06F
:10185000040104910421CDE9001069462846FFF7F0
:101860003BF80820CDE90004694628460294FFF7BA
:1018700033F8002211462620FFF78AF92620FFF7C9
:1018800079F906B070BD0000003801400010024038
:1018900000080140004400402DE9F84F044690F84C
:1018A0003E009A4616460D46202853D1FDB1F6B1AA
:1018B00094F83C0001284DD0012084F83C0000271A
:1018C0002764222084F83E002763FFF7F5F8A685F9
:1018D0008146E685A0684FF48058404501D12069D3
:1018E00040B12E465FF0000584F83C7027E00120EF
:1018F000BDE8F88F0026F7E74B460022202120465E
:10190000CDF800A000F075FE08B10320F0E726B185
:10191000A06840451BD038B108E020684068C0F39B
:10192000080025F8020B07E0206980B120684068B4
:1019300000F07F0006F8010BE08D401EE085E08D91
:101940000028D9D1202084F83E000020D0E720686C
:101950004068EFE70220CBE790F83E30202B0ED115
:1019600059B152B190F83C30012B08D0012380F8D6
:101970003C300023036300F021BE012070470220A9
:101980007047000070B500681449884225D114489A
:10199000C18CC18D016B90F83D1090F83E10006C29
:1019A000104C114A2078E1780428115401D2401CCF
:1019B00020700025522903D02078042809D000E0A7
:1019C0002570BDE8704007490122C91C0448FFF793
:1019D000C3BF072000F070FBF2E770BD0038014084
:1019E0006003002000000020240000202DE9F843BF
:1019F000044690F83D001F4616460D4620284CD15F
:101A0000C5B1BEB194F83C00012846D0012084F84D
:101A10003C004FF00008C4F84080212084F83D00CD
:101A2000FFF74AF8A6848146E684A068B0F5805F97
:101A300003D004E00120BDE8F883206928B12E46D8
:101A40005FF0000584F83C800EE00026FAE7802174
:101A5000204600F0CEFDA0B9AEB116F8010B21680A
:101A60004860E08C401EE084E08C4B464FF0000262
:101A700000970028EBD14FF04001204600F0B9FD5F
:101A800030B10320D7E735F8020BC0F30800E6E7D2
:101A9000202084F83D000020CDE70220CBE790F81D
:101AA0003D30202B18D1A9B1A2B190F83C30012BC8
:101AB00012D001628284C28400210164212280F854
:101AC0003D2080F83C100068C16841F08001C16091
:101AD0000020704701207047022070477047FEE7E2
:101AE00010B54FF6FF742346092208490848FFF74E
:101AF000D3FE06482346017AC07901EB0020C2B22A
:101B000002490348FFF7C8FE004810BDFC0300204F
:101B1000A403002010B58EB0002407940894099403
:101B20000A940B941C2168460C94FEF718FC20487C
:101B30004FF08041016040F27F21C0E9011440F282
:101B4000CF71C0E9031480218161FFF717FB08B151
:101B500072B6FEE74FF48050079007A91448FFF7CC
:101B60004DFB08B172B6FEE71148FFF73AFC08B129
:101B700072B6FEE70B940BA90D480C94FFF7CAFA56
:101B800008B172B6FEE760200090C820CDE90104DC
:101B900004200490002269460548FFF7BFFB08B106
:101BA00072B6FEE70248FFF795FB0EB010BD0000CD
:101BB0001803002001B54FF6FF7301226946024861
:101BC000FFF714FF08BD0000A40300202DE9F04F2B
:101BD00091B0804620216846FEF7C1FB202108A86D
:101BE000FEF7BDFB804E0027804CA8F102084FF0A5
:101BF0004E094FF4966B4FF0C80AA6F2F515B8F1EE
:101C0000090F54D2DFE808F00556C6535384531D1C
:101C10003E00002606EB860028447549FEF7C6FB09
:101C200030B1761CF6B2642EF4D3102271A1D0E04C
:101C300006EB860074A147556078401E60700E2246
:101C4000C7E0002606EB86002844074672A1FEF78F
:101C5000ADFB58B138466649FEF7A8FB78B1761C53
:101C6000F6B2642EEED310226CA1B2E006EB860031
:101C700028445F49FEF730FB6078401C60700E22FC
:101C80006BA1A6E000215848FFF7DAFB3168C1F8E4
:101C900034905846FEF70EFE3168C1F834A04FF478
:101CA0007A70FEF707FE00214F48FFF717FC11B0CE
:101CB000BDE8F08F5FF0000404EB84002844074681
:101CC00055A1FEF773FB20B138464949FEF76EFB7C
:101CD00030B1641CE4B2642CEED3112258A178E038
:101CE00000214148FFF7ACFB3168C1F834905846F9
:101CF000FEF7E0FD3168C1F834A04FF47A70FEF7CA
:101D0000D9FD00213848FFF7E9FB072251A160E027
:101D100052A13748FEF74AFB68B9A07858B132485B
:101D2000A77014224FA14830FFF7B9FEC820FEF774
:101D3000C1FD032043E051A12D48FEF737FB68B9F0
:101D4000A07858B12848A770142246A14830FFF760
:101D5000A6FEC820FEF7AEFD092030E049A12448C8
:101D6000FEF724FB28B9A07818B1A770FEF712FC83
:101D70009DE746A11E48FEF719FB70B9A07860B137
:101D8000A770C820FEF796FD1748062241A14830EB
:101D9000FFF785FE00F0CEFC89E740A11448FEF76E
:101DA00005FB78B9A07868B10F48A77014222DA15F
:101DB0004830FFF774FEC820FEF77CFD022000F0DB
:101DC0007BF974E737A10A48FEF7F0FA30B10A222E
:101DD00036A105484830FFF762FE68E70120A07091
:101DE0000E2235A1F5E700001803002000000020B6
:101DF0002400002044454C20756E73756363657341
:101E00007366756C2100000044454C207375636354
:101E1000657366756C210000000000004144442099
:101E2000756E7375636365737366756C210000006E
:101E30004144442073756363657366756C210000CB
:101E4000596F7572204944206973204572726F7210
:101E50002100000057656C636F6D21004F70656E47
:101E600000000000506C6561736520456E746572FA
:101E700020796F7572204944000000004164646E4F
:101E80000000000041646469000000004B61696D5E
:101E900000000000456E7465723A000044656C7481
:101EA00000000000303131330000000050494E2066
:101EB0004572726F7221000057656C636F6D65200B
:101EC00041646D696E210000FEE7FEE710B514461F
:101ED0001046FEF725FA214682B2BDE810400148BF
:101EE000FFF7DDBD6003002010B5044600F016F9D1
:101EF00000F0F2F80120FFF75DFE042000F017F972
:101F00000220FFF757FE2046FFF754FEE01D00F0C9
:101F1000FBF84FF4FA60FFF7E3FD08B1007810BD5D
:101F2000FF2010BD10B500F0F9F800F0D5F8012041
:101F3000FFF740FE032000F0FAF80120FFF73AFE19
:101F4000052000F0E1F84FF4FA60FFF7C9FD08B191
:101F5000007810BDFF2010BD2DE9F0411E4614464B
:101F60000D46074600F0DAF800F0B6F80120FFF75A
:101F700021FE082000F0DBF81B20FFF71BFE38468F
:101F8000FFF718FE280AFFF715FEE8B2FFF712FE6A
:101F9000200AFFF70FFEE0B2FFF70CFE07EB15205B
:101FA000E9B2084400EB1420E1B20844243000F008
:101FB000ABF84FF4FA60FFF793FD58B1827843789D
:101FC000017802EB032232800279C07802EB002014
:101FD000708000E0FF210846BDE8F08110B500F0F8
:101FE0009DF800F079F80120FFF7E4FD032000F0F0
:101FF0009EF80320FFF7DEFD072000F085F84FF480
:10200000FA60FFF76DFD08B1007810BDFF2010BD2C
:1020100010B500F083F800F05FF80120FFF7CAFD6B
:10202000032000F084F80520FFF7C4FD092000F02C
:102030006BF84FF4FA60FFF753FD08B1007810BD5C
:10204000FF2010BD70B50C46054600F067F800F0A3
:1020500043F80120FFF7AEFD062000F068F80620E7
:10206000FFF7A8FD2846FFF7A5FD200AFFF7A2FD10
:10207000E0B2FFF79FFD05EB1420E1B208440D30FC
:1020800000F042F84FF4FA60FFF72AFD08B100783B
:1020900070BDFF2070BD70470548018831B1491EF1
:1020A00089B20180034830F8110070470020704762
:1020B00014000020E8030020044A11880A2904D2F1
:1020C000034B23F81100491C1180704714000020B5
:1020D000E80300207047000010B50A4C6068000E4D
:1020E000FFF768FD6068C0F30740FFF763FDA08855
:1020F000C0F30720FFF75EFD2079BDE81040FFF731
:1021000059BD00001C00002010B50446000AFFF76E
:1021100051FDE0B2BDE81040FFF74CBD10B5EF2017
:10212000FFF748FDBDE810400120FFF743BD10B5A3
:102130000446C0F30720FFF73DFDE0B2BDE81040C4
:10214000FFF738BD10B5FEF7BDFCBDE8104000F04C
:102150004BB930B58FB028216846FEF700F914213D
:102160000AA8FEF7FCF80225012004900095102033
:10217000059000244FF46010CDE9084007956846AB
:10218000FEF724FE08B172B6FEE70F20CDE90A057E
:102190004FF48060CDE90C4002210AA80E94FEF7AE
:1021A00029FD002801D072B6FEE70FB030BD7047A0
:1021B000F0B50268164B174C174D4FF08047984208
:1021C00005D0B84203D0A04201D0A84203D122F0EA
:1021D00070064A683243984205D0B84203D0A04204
:1021E00001D0A84203D122F44074CA6822434C694A
:1021F00022F08002224302608A68C2620A68826218
:10220000984201D10969016301214161F0BD0000DB
:10221000002C0140000400400008004010B501F00F
:102220001F030121046A99408C430462016A9A40A9
:102230001143016210BD10B5846842EA032224F400
:102240007F440A432243826010BD826822F07002FC
:102250000A4342F0070181607047000030B5026A0E
:1022600022F001020262026A4368846924F0730565
:102270000C682C4322F002058A682A430A4DA842C2
:102280000BD122F00805CA6823F440732A434D6934
:1022900022F004021D438B692B434360846149682B
:1022A0004163026230BD0000002C014030B5026A7B
:1022B00022F010020262026A436884690D6824F405
:1022C000E64444EA05248D6822F0200242EA051221
:1022D0000B4DA8420ED1CD6822F0800242EA0512D1
:1022E0004D6923F4406343EA85038D6922F040027F
:1022F00043EA85034360846149688163026230BDBB
:10230000002C014030B5026A22F480720262036A36
:102310004268C46923F4007324F073050C682C43ED
:102320008D6843EA05230C4DA8420ED1CD6823F4F5
:10233000006343EA05234D6922F4405242EA051244
:102340008D6923F4806342EA05124260C4614968E2
:10235000C163036230BD0000002C014030B5026A49
:1023600022F480520262046A4268C3690D6823F451
:10237000E64343EA05238D6824F4005444EA053417
:10238000064DA84204D14D6922F4804242EA8512EA
:102390004260C36149680164046230BD002C0140A1
:1023A00010B5036A046A24F001040462846924F00D
:1023B000F00444EA021423F00A020A438461026230
:1023C00010BD10B5036A23F0100303628369046A29
:1023D00023F4704343EA023224F0A00343EA0111DC
:1023E0008261016210BD000007494868401C4860D6
:1023F0004FF4FA61B0FBF1F201FB1200002802D1A8
:102400000420FFF759BE70471400002010B5406A41
:102410000021C185C184FFF79AF810BD0168CA6820
:1024200022F49072CA6001684A6922F001024A618E
:10243000016B012904D10168CA6822F01002CA6048
:10244000202180F83E1000210163704708B590F804
:102450003E10222901D0022008BD82684FF480532B
:102460009A4201D1016921B1816A9A421BD04AB1D5
:102470000AE00268816A5268C2F308020A80816A2F
:10248000891C08E0026972B10268526802F07F029A
:102490000A70816A491C8162C18D491E0904090CB8
:1024A000C18503D019E002685268F1E70168CA6883
:1024B00022F02002CA600168CA6822F48072CA60F1
:1024C00001684A6922F001024A61202180F83E1029
:1024D000016B012903D0FFF755FA002008BD002148
:1024E00001630168CA6822F01002CA6001680A68C4
:1024F000D20602D50A6849680091818DFFF726F857
:10250000EBE7000070B5044600680169E26821F459
:102510004051114301612169A06808436169084382
:102520002168CA6841F20C639A430243CA6020687A
:102530004169A26921F44071114341611E4920683B
:10254000884202D1FEF7FCFB01E0FEF7E9FB00EB5D
:10255000C00101EB0012606864218000B2FBF0F35F
:10256000B3FBF1F36FF018067343B2FBF0F5B2FB67
:10257000F0F605EB8305322303EB0515B5FBF1F50A
:10258000B6FBF1F605F0F00505EB0615B2FBF0F62B
:10259000B2FBF0F0B0FBF1F06FF01802504306EB25
:1025A000800003EB0010B0FBF1F0216800F00F0099
:1025B0002844886070BD0000003801408162828537
:1025C000C28500210164222280F83E2080F83C1060
:1025D0000168CA6842F48072CA6001684A6942F0C0
:1025E00001024A610068C16841F02001C160002019
:1025F00070472DE9F041984617460E460446069D61
:102600001DE0681C1BD02DB1FEF756FAA0EB0800A8
:10261000A84214D92068C16821F4D071C160206833
:10262000416921F001014161202084F83D0084F8D6
:102630003E00002084F83C000320BDE8F0812068C3
:10264000006836EA000004D00020B842D9D000204B
:10265000F3E70120F9E700000148FEF779BF000029
:10266000600300200148FEF773BF0000A4030020B0
:10267000FEE70907090E002804DB00F1E02080F8DE
:102680000014704700F00F0000F1E02080F8141DE6
:102690007047000008B5FEF71DFAFFF75AFD204805
:1026A000816941F004018161806900F004000090BB
:1026B000FFF730FA1C481B49002401604FF4165103
:1026C000C0E901140C25C460C0E904458461C461FB
:1026D000FFF744F808B172B6FEE7134813494430D7
:1026E00001604FF4E131C0E90114C460C0E9044560
:1026F0008461C461FFF732F808B172B6FEE70122C7
:102700000B490948FFF728F90A20FFF7D5FC00BF5D
:10271000FFF7C2FC10F0FF00FAD0FFF757FAF7E717
:1027200000100240003801406003002000440040D7
:102730000300002000B587B01420FEF7BBF8FFF7B8
:10274000F1FB002808D10120FFF7CEFB30B11AA21F
:1027500002212020FFF7BAFB07B000BD05AB6322C2
:1027600000210120FFF7F8FB48B116A2022120202A
:10277000FFF7ACFB40F2DC50FEF79CF8ECE714A24C
:1027800002210020FFF7A2FB3220FEF793F8BDF8EC
:102790001630BDF8142013A16846FDF719FD6A46EE
:1027A00004210020FFF792FB4FF47A70FEF782F8C5
:1027B0000A20FFF781FCCFE7C7EBB0B4CAD6D6B882
:1027C0000D0A0000D1E9D6A4CAA7B0DC0D0A0000AA
:1027D0002020D6B8CEC6D1E9D6A4B3C9B9A6202048
:1027E0000D0A00002049443A256420B5C3B7D63A03
:1027F0002564200D0A000000000000000000000019
:102800000102030406070809000000000102030496
:1028100030280008000000202400000028010008E3
:1028200054280008240000209C0A000044010008ED
:102830000000000001000000100000000000000087
:102840000024F40000000000000000000000000070
:04285000FFFFFFFF88
:04000005080000ED02
:00000001FF
